{
  "abi": [
    {
      "anonymous": false,
      "inputs": [
        {
          "indexed": true,
          "internalType": "address",
          "name": "owner",
          "type": "address"
        },
        {
          "indexed": true,
          "internalType": "address",
          "name": "spender",
          "type": "address"
        },
        {
          "indexed": false,
          "internalType": "uint256",
          "name": "value",
          "type": "uint256"
        }
      ],
      "name": "Approval",
      "type": "event"
    },
    {
      "anonymous": false,
      "inputs": [
        {
          "indexed": true,
          "internalType": "address",
          "name": "from",
          "type": "address"
        },
        {
          "indexed": true,
          "internalType": "address",
          "name": "to",
          "type": "address"
        },
        {
          "indexed": false,
          "internalType": "uint256",
          "name": "value",
          "type": "uint256"
        }
      ],
      "name": "Transfer",
      "type": "event"
    },
    {
      "inputs": [
        {
          "internalType": "address",
          "name": "_owner",
          "type": "address"
        },
        {
          "internalType": "address",
          "name": "_spender",
          "type": "address"
        }
      ],
      "name": "allowance",
      "outputs": [
        {
          "internalType": "uint256",
          "name": "remaining",
          "type": "uint256"
        }
      ],
      "stateMutability": "pure",
      "type": "function"
    },
    {
      "inputs": [
        {
          "internalType": "address",
          "name": "_spender",
          "type": "address"
        },
        {
          "internalType": "uint256",
          "name": "_value",
          "type": "uint256"
        }
      ],
      "name": "approve",
      "outputs": [
        {
          "internalType": "bool",
          "name": "",
          "type": "bool"
        }
      ],
      "stateMutability": "nonpayable",
      "type": "function"
    },
    {
      "inputs": [
        {
          "internalType": "address",
          "name": "_owner",
          "type": "address"
        }
      ],
      "name": "balanceOf",
      "outputs": [
        {
          "internalType": "uint256",
          "name": "",
          "type": "uint256"
        }
      ],
      "stateMutability": "view",
      "type": "function"
    },
    {
      "inputs": [],
      "name": "decimals",
      "outputs": [
        {
          "internalType": "uint8",
          "name": "",
          "type": "uint8"
        }
      ],
      "stateMutability": "pure",
      "type": "function"
    },
    {
      "inputs": [],
      "name": "name",
      "outputs": [
        {
          "internalType": "string",
          "name": "",
          "type": "string"
        }
      ],
      "stateMutability": "pure",
      "type": "function"
    },
    {
      "inputs": [],
      "name": "simbol",
      "outputs": [
        {
          "internalType": "string",
          "name": "",
          "type": "string"
        }
      ],
      "stateMutability": "pure",
      "type": "function"
    },
    {
      "inputs": [],
      "name": "totalSupply",
      "outputs": [
        {
          "internalType": "uint256",
          "name": "",
          "type": "uint256"
        }
      ],
      "stateMutability": "pure",
      "type": "function"
    },
    {
      "inputs": [
        {
          "internalType": "address",
          "name": "_to",
          "type": "address"
        },
        {
          "internalType": "uint256",
          "name": "_value",
          "type": "uint256"
        }
      ],
      "name": "transfer",
      "outputs": [
        {
          "internalType": "bool",
          "name": "",
          "type": "bool"
        }
      ],
      "stateMutability": "nonpayable",
      "type": "function"
    },
    {
      "inputs": [
        {
          "internalType": "address",
          "name": "_from",
          "type": "address"
        },
        {
          "internalType": "address",
          "name": "_to",
          "type": "address"
        },
        {
          "internalType": "uint256",
          "name": "_value",
          "type": "uint256"
        }
      ],
      "name": "transferFrom",
      "outputs": [
        {
          "internalType": "bool",
          "name": "",
          "type": "bool"
        }
      ],
      "stateMutability": "nonpayable",
      "type": "function"
    }
  ],
  "bytecode": {
    "object": "0x608060405234801561001057600080fd5b50610400806100206000396000f3fe608060405234801561001057600080fd5b50600436106100935760003560e01c8063313ce56711610066578063313ce5671461012257806370a0823114610131578063720017041461015a578063a9059cbb14610178578063dd62ed3e1461018b57600080fd5b806306fdde0314610098578063095ea7b3146100cf57806318160ddd146100f257806323b872dd1461010b575b600080fd5b60408051808201909152600981526825b2b6362a37b5b2b760b91b60208201525b6040516100c69190610269565b60405180910390f35b6100e26100dd3660046102d3565b6101a1565b60405190151581526020016100c6565b683635c9adc5dea000005b6040519081526020016100c6565b6100e26101193660046102fd565b60019392505050565b604051601281526020016100c6565b6100fd61013f366004610339565b6001600160a01b031660009081526020819052604090205490565b60408051808201909152600281526112dd60f21b60208201526100b9565b6100e26101863660046102d3565b6101aa565b6100fd61019936600461035b565b600092915050565b60015b92915050565b6001600160a01b038216600090815260208190526040808220543383529082205482916101d6916103a4565b336000908152602081905260408120805492935085929091906101fa9084906103b7565b90915550506001600160a01b038416600090815260208190526040812080548592906102279084906103a4565b90915550506001600160a01b038416600090815260208190526040808220543383529120548291610257916103a4565b101561026257600080fd5b5092915050565b600060208083528351808285015260005b818110156102965785810183015185820160400152820161027a565b506000604082860101526040601f19601f8301168501019250505092915050565b80356001600160a01b03811681146102ce57600080fd5b919050565b600080604083850312156102e657600080fd5b6102ef836102b7565b946020939093013593505050565b60008060006060848603121561031257600080fd5b61031b846102b7565b9250610329602085016102b7565b9150604084013590509250925092565b60006020828403121561034b57600080fd5b610354826102b7565b9392505050565b6000806040838503121561036e57600080fd5b610377836102b7565b9150610385602084016102b7565b90509250929050565b634e487b7160e01b600052601160045260246000fd5b808201808211156101a4576101a461038e565b818103818111156101a4576101a461038e56fea2646970667358221220e8807b9c3adc80cf902913d08f6f5b27547d751b752028c37b0f10ef2adfc2c764736f6c63430008150033",
    "linkReferences": {}
  },
  "methodIdentifiers": {
    "allowance(address,address)": "dd62ed3e",
    "approve(address,uint256)": "095ea7b3",
    "balanceOf(address)": "70a08231",
    "decimals()": "313ce567",
    "name()": "06fdde03",
    "simbol()": "72001704",
    "totalSupply()": "18160ddd",
    "transfer(address,uint256)": "a9059cbb",
    "transferFrom(address,address,uint256)": "23b872dd"
  },
  "id": 27
}